:100000000C9480000C949F000C949F000C949F0013
:100010000C949F000C949F000C949F000C949F00E4
:100020000C949F000C949F000C949F000C949F00D4
:100030000C949F000C9479010C949F000C949F00E9
:100040000C949F000C949F000C949F000C949F00B4
:100050000C949F000C949F000C94D8010C949F006A
:100060000C949F000C949F000C949F000C949F0094
:100070000C949F000C94EE060C949F000C949F002F
:100080000C949F000C949F000C949F000C949F0074
:100090000C949F000C949F000C949F000C949F0064
:1000A0000C949F000C949F000C949F000C949F0054
:1000B0000C949F000C949F000C949F000C949F0044
:1000C0000C949F000C949F000C949F000C949F0034
:1000D0000C949F000C949F000C949F000C949F0024
:1000E0000C949F000C949F000C949F000C949F0014
:1000F0000C949F000C949F000C949F000C949F0004
:1001000011241FBECFEFCDBFDFE7DEBF10E4A0E0BC
:10011000B0E4E6ECF8E100E00BBF02C007900D92FE
:10012000A031B107D9F720E4A0E1B0E401C01D92ED
:10013000A73DB207E1F70E9400070C94610C0C94F4
:100140000000E0E4F4E084E0828382898B60828BAB
:100150000895E0E0F4E080818061808380818F7D7C
:10016000808380818064808380818068808380E850
:100170008583E0E4F9E0808182628083808181610F
:100180008083089580934409809143098823E4F78C
:100190008091440908956150710920E030E00EC05B
:1001A000DC01A20FB31F4C91FC01E60FF71F508139
:1001B0005C9340832F5F3F4F6150710926173707CB
:1001C0007CF30895CF92DF92EF92FF920F931F93EB
:1001D000CF93DF938A016901C0E0D0E011C07801BC
:1001E000EC0EFD1E2AE030E040E050E00E943A09AB
:1001F000605DF7016083622F732F842F952F219606
:10020000611571058105910551F706C0F801EC0FE4
:10021000FD1F80E380832196CC15DD05BCF3BE0174
:10022000C8010E94CB00F801EC0FFD1F1082CE0127
:10023000DF91CF911F910F91FF90EF90DF90CF90C2
:100240000895E0E4F4E020812D7F20832081216067
:1002500020830E943F0820E030E040E851E40E9403
:10026000CD089B01AC0160E07BE187EB9EE40E943E
:10027000970720E030E040E05FE30E942B070E94F8
:100280001008E0E2F8E0608771878681806C8683E1
:1002900008959091240895FFFCCF8093220808953B
:1002A0000F931F93CF93DF938C01C0E0D0E007C082
:1002B000F801EC0FFD1F80810E9449012196F80191
:1002C00001900020E9F73197E01BF10BCE17DF0713
:1002D00078F3DF91CF911F910F91089520E030E0E6
:1002E00049E250E40E94E20089E290E40E94500159
:1002F00008951F920F920FB60F9211240BB60F9212
:100300002F938F939F93AF93BF93EF93FF9380911E
:10031000B5409091B640A091B740B091B8400196D9
:10032000A11DB11D8093B5409093B640A093B740F6
:10033000B093B840893E9340A105B10508F181E032
:1003400090E08093194090931A408091A44090913E
:10035000A540A091A640B091A7400196A11DB11D56
:100360008093A4409093A540A093A640B093A7404B
:100370001092B5401092B6401092B7401092B8401B
:10038000E6E1FBE0808181608083FF91EF91BF9186
:10039000AF919F918F912F910F900BBE0F900FBE39
:1003A0000F901F90189578948BE0809372040895B5
:1003B0001F920F920FB60F9211240BB60F928F93CC
:1003C0009F93EF93FF938091690482FF0BC081E0BC
:1003D00090E080931B4090931C40E0E6F4E0818520
:1003E00084608187FF91EF919F918F910F900BBE59
:1003F0000F900FBE0F901F9018950E94C200089595
:10040000FC016623C9F02383328366277727942F64
:100410009370842F8C71880F880F880F890F8860E4
:1004200081839A0136952795329522952F7023273F
:100430003F70232720830895C90196958795969547
:1004400087959695879580832295220F207E21831C
:100450001382128208950E94A90080E88093060406
:10046000089580E880930504E0E4F9E080818E7FC0
:1004700080830895CF93DF93D82FC62F0E942B023D
:1004800082E00E94FD018D2F0E94FD018C2F0E94B1
:10049000FD010E9431028FE59AEE0197F1F700C04D
:1004A0000000DF91CF9108950F931F93CF93DF93B7
:1004B000C82F8B01D42F0E942B0282E00E94FD01E5
:1004C0008C2F0E94FD01C0E007C0F801EC0FF11D68
:1004D00080810E94FD01CF5FCD17B8F30E943102E9
:1004E0008FE59AEE0197F1F700C00000DF91CF9100
:1004F0001F910F9108951F93CF93DF93182FD62F3D
:10050000C42F0E942B0285E00E94FD01812F0E94D2
:10051000FD018D2F0E94FD018C2F0E94FD010E9484
:1005200031028FE59AEE0197F1F700C00000DF91EC
:10053000CF911F910895CF930E942B0280EA0E94D1
:10054000FD0180E00E94FD01C82F0E9431028FE56D
:100550009AEE0197F1F700C000008C2FCF9108951B
:10056000CF93C82F0E942B0283E00E94FD018C2FA5
:100570000E94FD0180E00E94FD01C82F0E9431020F
:100580008C2FCF910895CF92DF92EF92FF92CF936D
:10059000C82F482F60EE8FE00E947B02C090D340AE
:1005A000D090D440E090D540F090D6408AE0C80E7C
:1005B000D11CE11CF11C06C08EE00E94B002807EBE
:1005C000C81769F08091D3409091D440A091D54054
:1005D000B091D6408C159D05AE05BF0568F381E04E
:1005E000CF91FF90EF90DF90CF90089580E80E9428
:1005F000C3020895CF92DF92EF92FF920F931F9361
:10060000CF93DF9300D000D0CDB7DEB7182F062FE1
:1006100069017A010E94F602811118C0A7019601B2
:10062000602FCE0101960E940002112319F01130B3
:1006300019F00BC080E201C084E244E0BE016F5FAC
:100640007F4F0E94540280E001C081E02496CDBF1C
:10065000DEBFDF91CF911F910F91FF90EF90DF9060
:10066000CF900895CF92DF92EF92FF920F931F9356
:10067000CF93DF9300D000D0CDB7DEB7182F062F71
:1006800069017A010E94F60281112AC0123071F0CC
:1006900028F4112349F0113089F021C0143051F0B1
:1006A00038F0153049F01BC010E009C018E007C051
:1006B00010E105C014E103C018E101C014E0A70176
:1006C0009601602FCE0101960E94000244E0BE0117
:1006D0006F5F7F4F812F0E94540280E001C081E054
:1006E0002496CDBFDEBFDF91CF911F910F91FF9078
:1006F000EF90DF90CF900895EF92FF920F931F93AA
:10070000CF93DF93C82F7B01D42F0E942B0283E06D
:100710000E94FD018C2F0E94FD01C0E009C08701ED
:100720000C0F111D80E00E94FD01F8018083CF5F56
:10073000CD17A8F30E943102DF91CF911F910F9145
:10074000FF90EF9008959F92AF92BF92CF92DF9269
:10075000EF92FF920F931F93CF93DF93CDB7DEB746
:100760002D97CDBFDEBF5B0190E6998390E79A831A
:1007700091E69B8391E79C8396E69D8396E79E8313
:1007800091E09F8392E09887082F10E0E3E0F0E08B
:10079000EC0FFD1FE00FF11F45E0BE01675F7F4FCB
:1007A00080810E947C03C984D12CCC0CDD1CCC0C34
:1007B000DD1CCC0CDD1C8A85982F92959695977040
:1007C000C90ED11C0D2C000CEE08FF0883FF21C0C0
:1007D000CC0CDD1CEE1CFF1CCC0CDD1CEE1CFF1C2D
:1007E0008370C80ED11CE11CF11CFE2CED2CDC2CFE
:1007F000CC248B85C80ED11CE11CF11CFE2CED2CE9
:10080000DC2CCC248C85C80ED11CE11CF11C689416
:10081000F7F88D858F70982E88E0891568F1E1E0F2
:10082000F0E0EC0FFD1FE00FF11F80810E94B0028D
:1008300083FF02C06894F6F8F501C082D182E2829B
:10084000F3829482B5016B5F7F4FE5E0F0E0EC0F3F
:10085000FD1FE00FF11F492D80810E947C03E7E01E
:10086000F0E0EC0FFD1FE00FF11F40E060818CE233
:100870000E947B0280E001C081E02D96CDBFDEBFEB
:10088000DF91CF911F910F91FF90EF90DF90CF906C
:10089000BF90AF909F900895CF93DF93EC010E949B
:1008A0009B0280FF05C0BE0180E00E94A30308C038
:1008B00081FF05C0BE0181E00E94A30301C082E068
:1008C000DF91CF9108950F931F93CF93DF93CDB70F
:1008D000DEB76697CDBFDEBF0E942B0280EC0E9480
:1008E000FD010E9431028FE59AEE0197F1F700C0F9
:1008F00000008E010F5F1F4F8EE0F80111928A9564
:10090000E9F74EE0B80180E30E9454024EE0B801DE
:1009100080E40E9454024EE0B80180E50E94540237
:1009200060E080E60E943A0260E080E70E943A02BE
:1009300063EA8BE20E943A0244E067E680E60E94A6
:100940007B0241E067E680E70E947B0286E0E0E010
:10095000F0E4DE011F9601900D928A95E1F700E028
:1009600010E011C0EFE0F0E0EC0FFD1FE00FF11F11
:1009700020E030E0A90160E080810E943203811113
:1009800020C00F5F1F4F0630110564F31D8A81E000
:100990008E8B00E010E011C0E5E1F0E0EC0FFD1FF0
:1009A000E00FF11F20E030E0A90161E080810E94AA
:1009B000FA02811106C00F5F1F4F0230110564F368
:1009C00080E06696CDBFDEBFDF91CF911F910F9182
:1009D00008950E942B0280E880934104E4E4F4E04F
:1009E0008081806480830E9431020E9463040E949F
:1009F000F60263E08AE20E943A0260EF89E20E9416
:100A00003A0266E888E20E943A0280E00E94C3024D
:100A10000E94D30108957F928F929F92AF92BF92CE
:100A2000CF92DF92EF92FF920F931F93CF93DF93BA
:100A3000CDB7DEB76397CDBFDEBFFB0194819930A0
:100A400008F075C090E39E8790E49F8790E5988BAF
:100A500091E3998B91E49A8B91E59B8BC080D18037
:100A6000E280F38097018601002711272227307842
:100A700091E0011511052105310509F490E04601C9
:100A8000570188249924AA24F0E4BF22012B022BC9
:100A9000032B29F02FEF3FEF4FEF5FE104C02FEF63
:100AA00037E040E050E08B01782E2C213D214E2193
:100AB0005F21692FCE0101960E94000289288A28B1
:100AC0008B2821F0F8018481806402C0F8018481C0
:100AD0008D83F8014481B8016B5F7F4F50E0CE01F8
:100AE00006960E947B09F8014481072D10E04B5FB8
:100AF000E1E1F0E0EC0FFD1FE00FF11FBE016F5FC1
:100B00007F4F80810E945402EEE0F0E0EC0FFD1F69
:100B1000E00FF11F108148E068E0812F0E947B0206
:100B2000812F0E94B002807719F084E001C084E038
:100B30006396CDBFDEBFDF91CF911F910F91FF90E4
:100B4000EF90DF90CF90BF90AF909F908F907F906D
:100B50000895EF92FF920F931F93CF93DF93CDB73A
:100B6000DEB72697CDBFDEBFFC012481293060F5BA
:100B70007C01198281E08A8382E08B8380E38C830D
:100B800080E48D8380E58E8300E010E018C0E4E00F
:100B9000F0E0EC0FFD1FE00FF11F80810E94B0021A
:100BA00083FD0BC0E1E0F0E0EC0FFD1FE00FF11F53
:100BB000B70180810E940B0508C00F5F1F4F0330F3
:100BC00011052CF382E001C084E02696CDBFDEBF84
:100BD000DF91CF911F910F91FF90EF900895CF93E8
:100BE000DF93CDB7DEB72D97CDBFDEBFD9016983C7
:100BF0007A838B839C834D8380E090E00CC0FD0161
:100C0000E80FF91F3081E6E0F0E0EC0FFD1FE80F80
:100C1000F91F30830196642F70E08617970778F3E9
:100C2000CE0101960E94A9052D96CDBFDEBFDF91B2
:100C3000CF910895DC0180E007C0FD01E20FF31FB2
:100C400046E050E440838F5F282F30E0FD010190A3
:100C50000020E9F73197EA1BFB0B2E173F0768F3DB
:100C60000895CF92DF92EF92FF9220911940309138
:100C70001A402130310571F56B017C0181E190E46E
:100C80000E941A06C701B6010E94090821E030E05F
:100C90004BE550E40E94E200ABE5B0E48C91E1E169
:100CA000F0E4808311968C9181839F0142E067E09C
:100CB00070E080E090E00E94EF05109219401092E1
:100CC0001A402FEF82E597E0215080409040E1F7F5
:100CD00000C00000FF90EF90DF90CF9008951F9329
:100CE000CF93DF93CDB7DEB7A197CDBFDEBFCE01E7
:100CF00001960E944C042FEF36E781E021503040EE
:100D00008040E1F700C0000010E01AC0E6E0F0E02B
:100D1000EC0FFD1FE10FF11D80811F928F938DE07D
:100D200090E49F938F93CE010E969F938F930E9492
:100D300084091F5F0F900F900F900F900F900F90EE
:100D4000123020F39FEF22E537E0915020403040F1
:100D5000E1F700C000008E8190E0C097BC01660FF3
:100D6000771F880F991F880F991F880F991F680F89
:100D7000791F8F8190E0C097680F791F60931D40A5
:100D800070931E4080E090E00E946E018AE00E9415
:100D9000490180911D4090911E4086349105B9F41F
:100DA000E0E4F4E080E486839FEF2DE339E49150A2
:100DB00020403040E1F700C0000085838FEF9EE9BE
:100DC00024E2815090402040E1F700C00000A1964D
:100DD000CDBFDEBFDF91CF911F9108951F920F927B
:100DE0000FB60F9211248F9381E08093104084E01E
:100DF000809349048F910F900FBE0F901F9018950C
:100E0000789495E288ED84BF9093680060E875E27D
:100E100080E090E00E9421010E94A1000E94A900B0
:100E20000E94E90480E4809341048091104088236B
:100E3000E1F381E090E08093194090931A4060E0E4
:100E400070E084E392E40E9431060E946F061092E3
:100E50001040EBCF5058BB27AA270E9442070C94A2
:100E600093080E94850838F00E948C0820F039F41D
:100E70009F3F19F426F40C9482080EF4E095E7FBEA
:100E80000C947C08E92F0E94A40858F3BA17620753
:100E900073078407950720F079F4A6F50C94C6082B
:100EA0000EF4E0950B2EBA2FA02D0B01B901900185
:100EB0000C01CA01A0011124FF27591B99F0593FC9
:100EC00050F4503E68F11A16F040A22F232F342F11
:100ED0004427585FF3CF469537952795A795F0405F
:100EE0005395C9F77EF41F16BA0B620B730B840B74
:100EF000BAF09150A1F0FF0FBB1F661F771F881F2C
:100F0000C2F70EC0BA0F621F731F841F48F4879583
:100F100077956795B795F7959E3F08F0B0CF939575
:100F2000880F08F09927EE0F9795879508950E94EE
:100F3000AB070C9493080E948C0858F00E94850817
:100F400040F029F45F3F29F00C947C0851110C9477
:100F5000C7080C9482080E94A40868F39923B1F38F
:100F6000552391F3951B550BBB27AA2762177307CF
:100F7000840738F09F5F5F4F220F331F441FAA1F63
:100F8000A9F335D00E2E3AF0E0E832D0915050401F
:100F9000E695001CCAF72BD0FE2F29D0660F771FCD
:100FA000881FBB1F261737074807AB07B0E809F0B3
:100FB000BB0B802DBF01FF2793585F4F3AF09E3F38
:100FC000510578F00C947C080C94C7085F3FE4F35B
:100FD000983ED4F3869577956795B795F7959F5F7B
:100FE000C9F7880F911D9695879597F90895E1E0C7
:100FF000660F771F881FBB1F621773078407BA0726
:1010000020F0621B730B840BBA0BEE1F88F7E09580
:1010100008950E9410086894B1110C94C7080895AF
:101020000E94AC0888F09F5798F0B92F9927B751C4
:10103000B0F0E1F0660F771F881F991F1AF0BA957C
:10104000C9F714C0B13091F00E94C608B1E008950C
:101050000C94C608672F782F8827B85F39F0B93FFE
:10106000CCF3869577956795B395D9F73EF490952F
:101070008095709561957F4F8F4F9F4F0895E894AD
:1010800009C097FB3EF490958095709561957F4FD0
:101090008F4F9F4F9923A9F0F92F96E9BB2793957E
:1010A000F695879577956795B795F111F8CFFAF48E
:1010B000BB0F11F460FF1BC06F5F7F4F8F4F9F4FBF
:1010C00016C0882311F096E911C0772321F09EE81D
:1010D000872F762F05C0662371F096E8862F70E083
:1010E00060E02AF09A95660F771F881FDAF7880F5D
:1010F0009695879597F9089597F99F6780E870E02E
:1011000060E008959FEF80EC089500240A9416167D
:10111000170618060906089500240A9412161306E5
:10112000140605060895092E0394000C11F4882373
:1011300052F0BB0F40F4BF2B11F460FF04C06F5F8F
:101140007F4F8F4F9F4F089557FD9058440F551F65
:1011500059F05F3F71F04795880F97FB991F61F039
:101160009F3F79F087950895121613061406551FB0
:10117000F2CF4695F1DF08C0161617061806991F1C
:10118000F1CF86957105610508940895E894BB2711
:1011900066277727CB0197F908950E94E0080C9401
:1011A00093080E94850838F00E948C0820F095234F
:1011B00011F00C947C080C94820811240C94C7083C
:1011C0000E94A40870F3959FC1F3950F50E0551F3E
:1011D000629FF001729FBB27F00DB11D639FAA278C
:1011E000F00DB11DAA1F649F6627B00DA11D661FDB
:1011F000829F2227B00DA11D621F739FB00DA11DFC
:10120000621F839FA00D611D221F749F3327A00DB5
:10121000611D231F849F600D211D822F762F6A2F51
:1012200011249F5750409AF0F1F088234AF0EE0FB6
:10123000FF1FBB1F661F771F881F91505040A9F7E3
:101240009E3F510580F00C947C080C94C7085F3FCA
:10125000E4F3983ED4F3869577956795B795F7951F
:10126000E7959F5FC1F7FE2B880F911D9695879597
:1012700097F90895052E97FB1EF400940E945109DA
:1012800057FD07D00E94590907FC03D04EF40C9477
:10129000510950954095309521953F4F4F4F5F4FE5
:1012A000089590958095709561957F4F8F4F9F4FD2
:1012B0000895A1E21A2EAA1BBB1BFD010DC0AA1F97
:1012C000BB1FEE1FFF1FA217B307E407F50720F0AF
:1012D000A21BB30BE40BF50B661F771F881F991F2A
:1012E0001A9469F760957095809590959B01AC0173
:1012F000BD01CF010895FB01DC0102C001900D92F8
:1013000041505040D8F708950F931F93CF93DF9328
:10131000CDB7DEB72E97CDBFDEBF0D891E8986E023
:101320008C8309831A838FEF9FE78D839E83AE01A1
:10133000475E5F4F6F89788DCE0101960E94AD099F
:10134000EF81F885E00FF11F10822E96CDBFDEBF32
:10135000DF91CF911F910F9108952F923F924F925D
:101360005F926F927F928F929F92AF92BF92CF9235
:10137000DF92EF92FF920F931F93CF93DF93CDB73E
:10138000DEB72B97CDBFDEBF6C017B018A01FC016C
:1013900016821782838181FFCCC1CE0101963C0168
:1013A000F6019381F70193FD859193FF81917F0170
:1013B000882309F4BAC1853239F493FD859193FFEE
:1013C00081917F01853229F4B60190E00E94C70B1C
:1013D000E7CF912C212C312CFFE1F315D8F08B3283
:1013E00079F038F4803279F08332A1F4232D206132
:1013F0001DC08D3261F0803369F4232D216016C049
:10140000832D8260382EE32DE4603E2E2AC0F32D1A
:10141000F8601DC037FC2DC020ED280F2A3040F0A9
:101420008E32B9F436FC81C1232D2064322E19C0CE
:1014300036FE06C08AE0989E200D1124922E11C01F
:10144000EAE02E9E200D1124222EF32DF0623F2E75
:1014500008C08C3621F4832D8068382E02C088366F
:1014600041F4F70193FD859193FF81917F018111F3
:10147000B3CF982F9F7D9554933028F40C5F1F4F66
:101480009FE399830DC0833631F0833771F0833544
:1014900009F059C021C0F801808189830E5F1F4F78
:1014A00088248394912C530113C02801F2E04F0E3D
:1014B000511CF801A080B18036FE03C0692D70E098
:1014C00002C06FEF7FEFC5010E94BC0B4C0182018F
:1014D000F32DFF773F2E16C0280122E0420E511C4B
:1014E000F801A080B18036FE03C0692D70E002C013
:1014F0006FEF7FEFC5010E94B10B4C01F32DF06837
:101500003F2E820133FC1BC0822D90E08816990685
:10151000B0F4B60180E290E00E94C70B2A94F4CFA9
:10152000F50137FC859137FE81915F01B60190E0AE
:101530000E94C70B21102A9421E0821A910881147D
:10154000910471F7E8C0843611F0893641F5F8014D
:1015500037FE07C060817181828193810C5F1F4FCC
:1015600008C060817181072E000C880B990B0E5FFB
:101570001F4FF32DFF763F2E97FF09C09095809562
:10158000709561957F4F8F4F9F4FF0683F2E2AE0F7
:1015900030E0A3010E94030C882E861845C08537D1
:1015A00031F4232D2F7EB22E2AE030E025C0932D7A
:1015B000997FB92E8F36C1F018F4883579F0B5C00F
:1015C000803719F0883721F0B0C0E92FE061BE2ED6
:1015D000B4FE0DC0FB2DF460BF2E09C034FE0AC05E
:1015E000292F2660B22E06C028E030E005C020E199
:1015F00030E002C020E132E0F801B7FE07C06081B0
:101600007181828193810C5F1F4F06C0608171815F
:1016100080E090E00E5F1F4FA3010E94030C882E14
:101620008618FB2DFF773F2E36FE0DC0232D2E7F13
:10163000A22E891458F434FE0BC032FC09C0832D4D
:101640008E7EA82E05C0B82CA32C03C0B82C01C0D8
:10165000B92CA4FE0FC0FE01E80DF11D808180337E
:1016600021F49A2D997EA92E09C0A2FE06C0B3943A
:10167000B39404C08A2D867809F0B394A3FC11C0FA
:10168000A0FE06C0B21488F4280C922C9B180EC041
:10169000B21460F4B60180E290E00E94C70BB394EC
:1016A000F7CFB21418F42B1802C0982C212CA4FEEA
:1016B00010C0B60180E390E00E94C70BA2FE17C0E5
:1016C000A1FC03C088E790E002C088E590E0B60185
:1016D0000CC08A2D867859F0A1FE02C08BE201C0B1
:1016E00080E2A7FC8DE2B60190E00E94C70B89144E
:1016F00038F4B60180E390E00E94C70B9A94F7CFCC
:101700008A94F301E80DF11D8081B60190E00E94FA
:10171000C70B8110F5CF222009F442CEB60180E23A
:1017200090E00E94C70B2A94F6CFF601868197813C
:1017300002C08FEF9FEF2B96CDBFDEBFDF91CF9121
:101740001F910F91FF90EF90DF90CF90BF90AF90DF
:101750009F908F907F906F905F904F903F902F90D1
:101760000895FC010590615070400110D8F78095F4
:1017700090958E0F9F1F0895FC016150704001905D
:101780000110D8F7809590958E0F9F1F08950F93A5
:101790001F93CF93DF93FB01238121FD03C08FEFC4
:1017A0009FEF2CC022FF16C04681578124813581CE
:1017B0004217530744F4A081B1819D012F5F3F4F31
:1017C000208331838C93268137812F5F3F4F26837F
:1017D000378314C08B01EC01FB010084F185E02DFF
:1017E0000995892BE1F6D80116968D919C91179752
:1017F000019616968D939C931797CE01DF91CF910A
:101800001F910F910895FA01AA27283051F1203134
:1018100081F1E8946F936E7F6E5F7F4F8F4F9F4F84
:10182000AF4FB1E03ED0B4E03CD0670F781F891FC6
:101830009A1FA11D680F791F8A1F911DA11D6A0F94
:10184000711D811D911DA11D20D009F468943F9147
:101850002AE0269F11243019305D3193DEF6CF0146
:101860000895462F4770405D4193B3E00FD0C9F70C
:10187000F6CF462F4F70405D4A3318F0495D31FD79
:101880004052419302D0A9F7EACFB4E0A6959795CC
:10189000879577956795BA95C9F7009761057105A2
:1018A00008959B01AC010A2E0694579547953795EC
:1018B0002795BA95C9F7620F731F841F951FA01D46
:0618C0000895F894FFCF2B
:1018C600000102030405000073656E6400256300D1
:00000001FF
