:100000000C9480000C949F000C949F000C949F0013
:100010000C949F000C949F000C949F000C949F00E4
:100020000C949F000C949F000C949F000C949F00D4
:100030000C949F000C9466010C949F000C949F00FC
:100040000C949F000C949F000C949F000C949F00B4
:100050000C949F000C949F000C94C5010C949F007D
:100060000C949F000C949F000C949F000C949F0094
:100070000C949F000C949F000C949F000C949F0084
:100080000C949F000C949F000C949F000C949F0074
:100090000C949F000C949F000C949F000C949F0064
:1000A0000C949F000C949F000C949F000C949F0054
:1000B0000C949F000C949F000C949F000C949F0044
:1000C0000C949F000C949F000C949F000C949F0034
:1000D0000C949F000C949F000C949F000C949F0024
:1000E0000C949F000C949F000C949F000C949F0014
:1000F0000C949F000C949F000C949F000C949F0004
:1001000011241FBECFEFCDBFDFE7DEBF10E4A0E0BC
:10011000B0E4E2E5F8E100E00BBF02C007900D9209
:10012000A832B107D9F720E4A8E2B0E401C01D92DB
:10013000A73FB207E1F70E94CE060C94270C0C945F
:100140000000E0E0F4E080818061808380818F7D29
:10015000808380818064808380818068808380E860
:100160008583E0E4F9E0808182628083808181611F
:100170008083089580934409809143098823E4F79C
:100180008091440908956150710920E030E00EC06B
:10019000DC01A20FB31F4C91FC01E60FF71F508149
:1001A0005C9340832F5F3F4F6150710926173707DB
:1001B0007CF30895CF92DF92EF92FF920F931F93FB
:1001C000CF93DF938A016901C0E0D0E011C07801CC
:1001D000EC0EFD1E2AE030E040E050E00E940009F5
:1001E000605DF7016083622F732F842F952F219616
:1001F000611571058105910551F706C0F801EC0FF5
:10020000FD1F80E380832196CC15DD05BCF3BE0184
:10021000C8010E94C300F801EC0FFD1F1082CE013F
:10022000DF91CF911F910F91FF90EF90DF90CF90D2
:100230000895E0E4F4E020812D7F20832081216077
:1002400020830E94050820E030E040E851E40E944D
:1002500093089B01AC0160E07BE187EB9EE40E9488
:100260005D0720E030E040E05FE30E94F1060E947D
:10027000D607E0E2F8E0608771878681806C86832C
:1002800008959091240895FFFCCF8093220808954B
:100290000F931F93CF93DF938C01C0E0D0E007C092
:1002A000F801EC0FFD1F80810E9441012196F801A9
:1002B00001900020E9F73197E01BF10BCE17DF0723
:1002C00078F3DF91CF911F910F9108951F920F92B4
:1002D0000FB60F9211240BB60F922F938F939F930B
:1002E000AF93BF93EF93FF938091D5409091D64009
:1002F000A091D740B091D8400196A11DB11D809327
:10030000D5409093D640A093D740B093D840893E33
:100310009340A105B10508F181E090E0809332405F
:10032000909333408091BC409091BD40A091BE40DD
:10033000B091BF400196A11DB11D8093BC40909328
:10034000BD40A093BE40B093BF401092D5401092E4
:10035000D6401092D7401092D840E6E1FBE0808171
:1003600081608083FF91EF91BF91AF919F918F91B9
:100370002F910F900BBE0F900FBE0F901F901895EE
:1003800078948BE08093720408951F920F920FB6B9
:100390000F9211240BB60F928F939F93EF93FF93BD
:1003A0008091690482FF0BC081E090E0809334402B
:1003B00090933540E0E6F4E0818584608187FF9189
:1003C000EF919F918F910F900BBE0F900FBE0F90EA
:1003D0001F9018950E94BA000895FC016623C9F089
:1003E0002383328366277727942F9370842F8C7111
:1003F000880F880F880F890F886081839A0136954E
:100400002795329522952F7023273F70232720832D
:100410000895C901969587959695879596958795A0
:1004200080832295220F207E2183138212820895D9
:100430000E94A10080E880930604089580E88093DC
:100440000504E0E4F9E080818E7F80830895CF93F6
:10045000DF93D82FC62F0E94180282E00E94EA0183
:100460008D2F0E94EA018C2F0E94EA010E941E0239
:100470008FE59AEE0197F1F700C00000DF91CF9170
:1004800008950F931F93CF93DF93C82F8B01D42F21
:100490000E94180282E00E94EA018C2F0E94EA0169
:1004A000C0E007C0F801EC0FF11D80810E94EA0155
:1004B000CF5FCD17B8F30E941E028FE59AEE019729
:1004C000F1F700C00000DF91CF911F910F910895C7
:1004D0001F93CF93DF93182FD62FC42F0E9418029B
:1004E00085E00E94EA01812F0E94EA018D2F0E947F
:1004F000EA018C2F0E94EA010E941E028FE59AEE0B
:100500000197F1F700C00000DF91CF911F9108958E
:10051000CF930E94180280EA0E94EA0180E00E94C4
:10052000EA01C82F0E941E028FE59AEE0197F1F7AB
:1005300000C000008C2FCF910895CF93C82F0E9448
:10054000180283E00E94EA018C2F0E94EA0180E0F9
:100550000E94EA01C82F0E941E028C2FCF9108959D
:10056000CF92DF92EF92FF92CF93C82F482F60EE89
:100570008FE00E946802C090F340D090F440E09079
:10058000F540F090F6408AE0C80ED11CE11CF11C49
:1005900006C08EE00E949D02807EC81769F080919F
:1005A000F3409091F440A091F540B091F6408C1545
:1005B0009D05AE05BF0568F381E0CF91FF90EF90F8
:1005C000DF90CF90089580E80E94B0020895CF9206
:1005D000DF92EF92FF920F931F93CF93DF9300D0A0
:1005E00000D0CDB7DEB7182F062F69017A010E941F
:1005F000E302811118C0A7019601602FCE01019678
:100600000E94ED01112319F0113019F00BC080E2A6
:1006100001C084E244E0BE016F5F7F4F0E9441024F
:1006200080E001C081E02496CDBFDEBFDF91CF9195
:100630001F910F91FF90EF90DF90CF900895CF9290
:10064000DF92EF92FF920F931F93CF93DF9300D02F
:1006500000D0CDB7DEB7182F062F69017A010E94AE
:10066000E30281112AC0123071F028F4112349F0FD
:10067000113089F021C0143051F038F0153049F0B4
:100680001BC010E009C018E007C010E105C014E16C
:1006900003C018E101C014E0A7019601602FCE014C
:1006A00001960E94ED0144E0BE016F5F7F4F812FF4
:1006B0000E94410280E001C081E02496CDBFDEBFF0
:1006C000DF91CF911F910F91FF90EF90DF90CF902E
:1006D0000895EF92FF920F931F93CF93DF93C82F4C
:1006E0007B01D42F0E94180283E00E94EA018C2F24
:1006F0000E94EA01C0E009C087010C0F111D80E0D3
:100700000E94EA01F8018083CF5FCD17A8F30E9411
:100710001E02DF91CF911F910F91FF90EF900895EE
:100720009F92AF92BF92CF92DF92EF92FF920F9380
:100730001F93CF93DF93CDB7DEB72D97CDBFDEBF2D
:100740005B0190E6998390E79A8391E69B8391E71A
:100750009C8396E69D8396E79E8391E09F8392E03B
:100760009887082F10E0E3E0F0E0EC0FFD1FE00FAA
:10077000F11F45E0BE01675F7F4F80810E946903E2
:10078000C984D12CCC0CDD1CCC0CDD1CCC0CDD1CAC
:100790008A85982F929596959770C90ED11C0D2C2D
:1007A000000CEE08FF0883FF21C0CC0CDD1CEE1C02
:1007B000FF1CCC0CDD1CEE1CFF1C8370C80ED11C72
:1007C000E11CF11CFE2CED2CDC2CCC248B85C80EFE
:1007D000D11CE11CF11CFE2CED2CDC2CCC248C85D6
:1007E000C80ED11CE11CF11C6894F7F88D858F7040
:1007F000982E88E0891568F1E1E0F0E0EC0FFD1F2C
:10080000E00FF11F80810E949D0283FF02C0689467
:10081000F6F8F501C082D182E282F3829482B501BA
:100820006B5F7F4FE5E0F0E0EC0FFD1FE00FF11F85
:10083000492D80810E946903E7E0F0E0EC0FFD1F85
:10084000E00FF11F40E060818CE20E94680280E0CE
:1008500001C081E02D96CDBFDEBFDF91CF911F910A
:100860000F91FF90EF90DF90CF90BF90AF909F904F
:100870000895CF93DF93EC010E94880280FF05C0AA
:10088000BE0180E00E94900308C081FF05C0BE0148
:1008900081E00E94900301C082E0DF91CF91089532
:1008A0000F931F93CF93DF93CDB7DEB76697CDBF7E
:1008B000DEBF0E94180280EC0E94EA010E941E0224
:1008C0008FE59AEE0197F1F700C000008E010F5FEF
:1008D0001F4F8EE0F80111928A95E9F74EE0B801BA
:1008E00080E30E9441024EE0B80180E40E94410290
:1008F0004EE0B80180E50E94410260E080E60E947F
:10090000270260E080E70E94270263EA8BE20E94F0
:10091000270244E067E680E60E94680241E067E65D
:1009200080E70E94680286E0E0E0F0E4DE011F96C6
:1009300001900D928A95E1F700E010E011C0EFE020
:10094000F0E0EC0FFD1FE00FF11F20E030E0A90107
:1009500060E080810E941F03811120C00F5F1F4F44
:100960000630110564F31D8A81E08E8B00E010E0F3
:1009700011C0E5E1F0E0EC0FFD1FE00FF11F20E0FA
:1009800030E0A90161E080810E94E702811106C088
:100990000F5F1F4F0230110564F380E06696CDBFF4
:1009A000DEBFDF91CF911F910F9108950E94180231
:1009B00080E880934104E4E4F4E0808180648083F3
:1009C0000E941E020E9450040E94E30263E08AE239
:1009D0000E94270260EF89E20E94270266E888E20F
:1009E0000E94270280E00E94B0020E94C001089588
:1009F0007F928F929F92AF92BF92CF92DF92EF92AF
:100A0000FF920F931F93CF93DF93CDB7DEB763971A
:100A1000CDBFDEBFFB019481993008F075C090E333
:100A20009E8790E49F8790E5988B91E3998B91E462
:100A30009A8B91E59B8BC080D180E280F3809701F7
:100A40008601002711272227307891E00115110532
:100A50002105310509F490E04601570188249924C5
:100A6000AA24F0E4BF22012B022B032B29F02FEF45
:100A70003FEF4FEF5FE104C02FEF37E040E050E081
:100A80008B01782E2C213D214E215F21692FCE0133
:100A900001960E94ED0189288A288B2821F0F8010F
:100AA0008481806402C0F80184818D83F8014481CF
:100AB000B8016B5F7F4F50E0CE0106960E9441095E
:100AC000F8014481072D10E04B5FE1E1F0E0EC0F0D
:100AD000FD1FE00FF11FBE016F5F7F4F80810E94FD
:100AE0004102EEE0F0E0EC0FFD1FE00FF11F10817E
:100AF00048E068E0812F0E946802812F0E949D02D9
:100B0000807719F084E001C084E06396CDBFDEBF3A
:100B1000DF91CF911F910F91FF90EF90DF90CF90D9
:100B2000BF90AF909F908F907F900895EF92FF922B
:100B30000F931F93CF93DF93CDB7DEB72697CDBF2B
:100B4000DEBFFC012481293060F57C01198281E03F
:100B50008A8382E08B8380E38C8380E48D8380E5CD
:100B60008E8300E010E018C0E4E0F0E0EC0FFD1F21
:100B7000E00FF11F80810E949D0283FD0BC0E1E028
:100B8000F0E0EC0FFD1FE00FF11FB70180810E9424
:100B9000F80408C00F5F1F4F033011052CF382E0EB
:100BA00001C084E02696CDBFDEBFDF91CF911F91BB
:100BB0000F91FF90EF900895CF93DF93CDB7DEB7FD
:100BC0002D97CDBFDEBFD90169837A838B839C8348
:100BD0004D8380E090E00CC0FD01E80FF91F3081EB
:100BE000E6E0F0E0EC0FFD1FE80FF91F30830196FF
:100BF000642F70E08617970778F3CE0101960E9464
:100C000096052D96CDBFDEBFDF91CF910895DC0113
:100C100080E007C0FD01E20FF31F46E050E440838F
:100C20008F5F282F30E0FD0101900020E9F7319718
:100C3000EA1BFB0B2E173F0768F30895CF92DF9254
:100C4000EF92FF92209132403091334021303105B4
:100C500071F56B017C0188E290E40E940706C701F0
:100C6000B6010E94CF0721E030E042E750E40E9445
:100C7000DA00A2E7B0E48C91E8E2F0E48083119618
:100C80008C9181839F0142E067E070E080E090E01A
:100C90000E94DC0510923240109233402FEF82E523
:100CA00097E0215080409040E1F700C00000FF90A5
:100CB000EF90DF90CF9008951F93CF93DF93CDB740
:100CC000DEB7A197CDBFDEBFCE0101960E943904E9
:100CD0002FEF86E791E0215080409040E1F700C07F
:100CE000000010E01AC0E6E0F0E0EC0FFD1FE10F9D
:100CF000F11D80811F928F938DE090E49F938F93DD
:100D0000CE010E969F938F930E944A091F5F0F900A
:100D10000F900F900F900F900F90123020F32FEF45
:100D200082E597E0215080409040E1F700C000004C
:100D30008E8190E0C0979C01220F331F880F991F6E
:100D4000880F991F880F991F820F931F2F8130E002
:100D500020533109820F931F80933040909331408C
:100D60008D9739F480E190E40E9448018AE00E9466
:100D7000410180913040909131408134910539F4A6
:100D80008CE190E40E9448018AE00E944101A19612
:100D9000CDBFDEBFDF91CF911F91089595E288ED21
:100DA00084BF9093680060E875E280E090E00E9464
:100DB00019010E94A1000E94D6048DEC90E40E94CB
:100DC000070681E090E0809332409093334060E0EA
:100DD00070E08CE892E40E941E060E945C06F1CF4F
:100DE0005058BB27AA270E9408070C9459080E9454
:100DF0004B0838F00E94520820F039F49F3F19F454
:100E000026F40C9448080EF4E095E7FB0C94420895
:100E1000E92F0E946A0858F3BA176207730784071C
:100E2000950720F079F4A6F50C948C080EF4E09563
:100E30000B2EBA2FA02D0B01B90190010C01CA0194
:100E4000A0011124FF27591B99F0593F50F4503E3F
:100E500068F11A16F040A22F232F342F4427585F31
:100E6000F3CF469537952795A795F0405395C9F749
:100E70007EF41F16BA0B620B730B840BBAF0915001
:100E8000A1F0FF0FBB1F661F771F881FC2F70EC0A0
:100E9000BA0F621F731F841F48F487957795679573
:100EA000B795F7959E3F08F0B0CF9395880F08F05F
:100EB0009927EE0F9795879508950E9471070C94D6
:100EC00059080E94520858F00E944B0840F029F43B
:100ED0005F3F29F00C94420851110C948D080C943A
:100EE00048080E946A0868F39923B1F3552391F3E7
:100EF000951B550BBB27AA2762177307840738F089
:100F00009F5F5F4F220F331F441FAA1FA9F335D0E5
:100F10000E2E3AF0E0E832D091505040E695001C99
:100F2000CAF72BD0FE2F29D0660F771F881FBB1F53
:100F3000261737074807AB07B0E809F0BB0B802D31
:100F4000BF01FF2793585F4F3AF09E3F510578F05D
:100F50000C9442080C948D085F3FE4F3983ED4F360
:100F6000869577956795B795F7959F5FC9F7880F31
:100F7000911D9695879597F90895E1E0660F771F83
:100F8000881FBB1F621773078407BA0720F0621B14
:100F9000730B840BBA0BEE1F88F7E09508950E943F
:100FA000D6076894B1110C948D0808950E947208B8
:100FB00088F09F5798F0B92F9927B751B0F0E1F01A
:100FC000660F771F881F991F1AF0BA95C9F714C0CA
:100FD000B13091F00E948C08B1E008950C948C0817
:100FE000672F782F8827B85F39F0B93FCCF3869503
:100FF00077956795B395D9F73EF490958095709560
:1010000061957F4F8F4F9F4F0895E89409C097FBDC
:101010003EF490958095709561957F4F8F4F9F4FCF
:101020009923A9F0F92F96E9BB279395F695879513
:1010300077956795B795F111F8CFFAF4BB0F11F4D6
:1010400060FF1BC06F5F7F4F8F4F9F4F16C088237D
:1010500011F096E911C0772321F09EE8872F762FB3
:1010600005C0662371F096E8862F70E060E02AF0F4
:101070009A95660F771F881FDAF7880F96958795E0
:1010800097F9089597F99F6780E870E060E0089508
:101090009FEF80EC089500240A9416161706180690
:1010A0000906089500240A9412161306140605066C
:1010B0000895092E0394000C11F4882352F0BB0FFD
:1010C00040F4BF2B11F460FF04C06F5F7F4F8F4F60
:1010D0009F4F089557FD9058440F551F59F05F3F9B
:1010E00071F04795880F97FB991F61F09F3F79F04A
:1010F00087950895121613061406551FF2CF4695CC
:10110000F1DF08C0161617061806991FF1CF86954D
:101110007105610508940895E894BB276627772731
:10112000CB0197F908950E94A6080C9459080E94D3
:101130004B0838F00E94520820F0952311F00C94CF
:1011400042080C94480811240C948D080E946A08E7
:1011500070F3959FC1F3950F50E0551F629FF0010A
:10116000729FBB27F00DB11D639FAA27F00DB11D23
:10117000AA1F649F6627B00DA11D661F829F2227AC
:10118000B00DA11D621F739FB00DA11D621F839F33
:10119000A00D611D221F749F3327A00D611D231F09
:1011A000849F600D211D822F762F6A2F11249F5757
:1011B00050409AF0F1F088234AF0EE0FFF1FBB1F5A
:1011C000661F771F881F91505040A9F79E3F510519
:1011D00080F00C9442080C948D085F3FE4F3983E35
:1011E000D4F3869577956795B795F795E7959F5FC3
:1011F000C1F7FE2B880F911D9695879597F9089555
:10120000052E97FB1EF400940E94170957FD07D086
:101210000E941F0907FC03D04EF40C941709509547
:101220004095309521953F4F4F4F5F4F08959095D2
:101230008095709561957F4F8F4F9F4F0895A1E2E4
:101240001A2EAA1BBB1BFD010DC0AA1FBB1FEE1F40
:10125000FF1FA217B307E407F50720F0A21BB30B8B
:10126000E40BF50B661F771F881F991F1A9469F707
:1012700060957095809590959B01AC01BD01CF0163
:101280000895FB01DC0102C001900D9241505040D5
:10129000D8F708950F931F93CF93DF93CDB7DEB7A1
:1012A0002E97CDBFDEBF0D891E8986E08C83098312
:1012B0001A838FEF9FE78D839E83AE01475E5F4F5A
:1012C0006F89788DCE0101960E947309EF81F885B0
:1012D000E00FF11F10822E96CDBFDEBFDF91CF91C0
:1012E0001F910F9108952F923F924F925F926F92AC
:1012F0007F928F929F92AF92BF92CF92DF92EF92A6
:10130000FF920F931F93CF93DF93CDB7DEB72B9749
:10131000CDBFDEBF6C017B018A01FC011682178202
:10132000838181FFCCC1CE0101963C01F6019381FE
:10133000F70193FD859193FF81917F01882309F443
:10134000BAC1853239F493FD859193FF81917F0174
:10135000853229F4B60190E00E948D0BE7CF912CE5
:10136000212C312CFFE1F315D8F08B3279F038F4D1
:10137000803279F08332A1F4232D20611DC08D329B
:1013800061F0803369F4232D216016C0832D8260C3
:10139000382EE32DE4603E2E2AC0F32DF8601DC0E8
:1013A00037FC2DC020ED280F2A3040F08E32B9F4E2
:1013B00036FC81C1232D2064322E19C036FE06C0B2
:1013C0008AE0989E200D1124922E11C0EAE02E9EF4
:1013D000200D1124222EF32DF0623F2E08C08C36F2
:1013E00021F4832D8068382E02C0883641F4F7013D
:1013F00093FD859193FF81917F018111B3CF982F48
:101400009F7D9554933028F40C5F1F4F9FE3998381
:101410000DC0833631F0833771F0833509F059C040
:1014200021C0F801808189830E5F1F4F8824839437
:10143000912C530113C02801F2E04F0E511CF8010A
:10144000A080B18036FE03C0692D70E002C06FEF4E
:101450007FEFC5010E94820B4C018201F32DFF77C3
:101460003F2E16C0280122E0420E511CF801A08038
:10147000B18036FE03C0692D70E002C06FEF7FEFD0
:10148000C5010E94770B4C01F32DF0683F2E8201BD
:1014900033FC1BC0822D90E088169906B0F4B6018B
:1014A00080E290E00E948D0B2A94F4CFF50137FC86
:1014B000859137FE81915F01B60190E00E948D0B0E
:1014C00021102A9421E0821A91088114910471F765
:1014D000E8C0843611F0893641F5F80137FE07C0BF
:1014E00060817181828193810C5F1F4F08C0608190
:1014F0007181072E000C880B990B0E5F1F4FF32D87
:10150000FF763F2E97FF09C0909580957095619565
:101510007F4F8F4F9F4FF0683F2E2AE030E0A301AE
:101520000E94C90B882E861845C0853731F4232DBB
:101530002F7EB22E2AE030E025C0932D997FB92E60
:101540008F36C1F018F4883579F0B5C0803719F0BE
:10155000883721F0B0C0E92FE061BE2EB4FE0DC087
:10156000FB2DF460BF2E09C034FE0AC0292F26606F
:10157000B22E06C028E030E005C020E130E002C015
:1015800020E132E0F801B7FE07C0608171818281FD
:1015900093810C5F1F4F06C06081718180E090E0F5
:1015A0000E5F1F4FA3010E94C90B882E8618FB2DCA
:1015B000FF773F2E36FE0DC0232D2E7FA22E8914DD
:1015C00058F434FE0BC032FC09C0832D8E7EA82E49
:1015D00005C0B82CA32C03C0B82C01C0B92CA4FEA4
:1015E0000FC0FE01E80DF11D8081803321F49A2D9A
:1015F000997EA92E09C0A2FE06C0B394B39404C07C
:101600008A2D867809F0B394A3FC11C0A0FE06C011
:10161000B21488F4280C922C9B180EC0B21460F4FB
:10162000B60180E290E00E948D0BB394F7CFB21424
:1016300018F42B1802C0982C212CA4FE10C0B6015F
:1016400080E390E00E948D0BA2FE17C0A1FC03C0B6
:1016500088E790E002C088E590E0B6010CC08A2DD2
:10166000867859F0A1FE02C08BE201C080E2A7FC9F
:101670008DE2B60190E00E948D0B891438F4B6011A
:1016800080E390E00E948D0B9A94F7CF8A94F30147
:10169000E80DF11D8081B60190E00E948D0B811054
:1016A000F5CF222009F442CEB60180E290E00E94FC
:1016B0008D0B2A94F6CFF6018681978102C08FEFB9
:1016C0009FEF2B96CDBFDEBFDF91CF911F910F9182
:1016D000FF90EF90DF90CF90BF90AF909F908F9052
:1016E0007F906F905F904F903F902F900895FC01F6
:1016F0000590615070400110D8F7809590958E0F3D
:101700009F1F0895FC016150704001900110D8F7AF
:10171000809590958E0F9F1F08950F931F93CF93E1
:10172000DF93FB01238121FD03C08FEF9FEF2CC0CE
:1017300022FF16C046815781248135814217530705
:1017400044F4A081B1819D012F5F3F4F20833183FD
:101750008C93268137812F5F3F4F2683378314C0B8
:101760008B01EC01FB010084F185E02D0995892BAB
:10177000E1F6D80116968D919C91179701961696D1
:101780008D939C931797CE01DF91CF911F910F916D
:101790000895FA01AA27283051F1203181F1E89407
:1017A0006F936E7F6E5F7F4F8F4F9F4FAF4FB1E054
:1017B0003ED0B4E03CD0670F781F891F9A1FA11D4F
:1017C000680F791F8A1F911DA11D6A0F711D811D50
:1017D000911DA11D20D009F468943F912AE0269F15
:1017E00011243019305D3193DEF6CF010895462F74
:1017F0004770405D4193B3E00FD0C9F7F6CF462F55
:101800004F70405D4A3318F0495D31FD40524193BD
:1018100002D0A9F7EACFB4E0A6959795879577957A
:101820006795BA95C9F700976105710508959B0101
:10183000AC010A2E06945795479537952795BA958A
:10184000C9F7620F731F841F951FA01D0895F89498
:02185000FFCFC8
:10185200000102030405000073656E640025630045
:1018620053312044455445435445440053322044A7
:08187200455445435445440070
:00000001FF
